:100000000C9446000C9465000C9465000C946500FB
:100010000C9465000C9465000C9465000C946500CC
:100020000C9465000C9465000C9465000C946500BC
:100030000C9465000C94DB010C9465000C94650035
:100040000C9465000C9465000C9465000C9465009C
:100050000C9465000C9465000C9465000C9465008C
:100060000C9465000C9465000C9465000C9465007C
:100070000C9465000C9465000C9465000C9465006C
:100080000C9465000C9465000C94650011241FBE4F
:10009000CFEFD0E4DEBFCDBF11E0A0E0B1E0E0E4FF
:1000A000F9E000E00BBF02C007900D92A632B10745
:1000B000D9F721E0A6E2B1E001C01D92AE32B2074D
:1000C000E1F70E94DA030C9490040C940000CF93A3
:1000D000DF93CDB7DEB781E00E948E000000DF9194
:1000E000CF910895CF93DF93CDB7DEB784E690E04C
:1000F0000E94330188E30E948E0086E00E948E00F9
:100100008FE00E948E0081E00E948E008AE090E0E5
:100110000E9433010000DF91CF910895CF93DF93C8
:100120000F92CDB7DEB789838BE290E0FC0120818E
:100130008BE290E02F7BFC01208388E290E0298114
:10014000FC0120838BE290E0FC0120818BE290E0B7
:100150002068FC01208300008BE290E0FC012081FC
:100160008BE290E02F77FC01208382E090E00E94F8
:10017000330100000F90DF91CF910895CF93DF936B
:100180000F92CDB7DEB789838BE290E0FC0120812E
:100190008BE290E02064FC01208388E290E02981DA
:1001A000FC0120838BE290E0FC0120818BE290E057
:1001B0002068FC01208300008BE290E0FC0120819C
:1001C0008BE290E02F77FC01208381E090E00E9499
:1001D000330100000F90DF91CF910895CF93DF930B
:1001E00000D000D0CDB7DEB78A837C836B830E94BA
:1001F00067008A81898311C0898191E0980F998372
:100200000E941C018B819C819C012F5F3F4F3C838E
:100210002B83FC0180810E94BE008B819C81FC01AC
:100220008081882349F7000000000F900F900F9005
:100230000F90DF91CF910895CF93DF930F92CDB7B9
:10024000DEB789838981813128F4898181580E94B0
:100250008E0004C0898181550E948E0000000F909D
:10026000DF91CF910895CF93DF9300D000D000D0DD
:10027000CDB7DEB79E838D831A82198213C01C828C
:100280001B8206C000008B819C8101969C838B831E
:100290008B819C8187309340ACF389819A81019650
:1002A0009A83898329813A818D819E812817390714
:1002B00034F30000000026960FB6F894DEBF0FBEA0
:1002C000CDBFDF91CF910895CF93DF9300D00F92F0
:1002D000CDB7DEB789837B836A8389818A3031F425
:1002E0008A819B81BC018DE00E94640180EC90E0DA
:1002F000FC018081882F90E080729927892BB1F3CF
:1003000086EC90E02981FC01208380E090E00F9052
:100310000F900F90DF91CF910895CF93DF93CDB7DA
:10032000DEB781E890E02BE0FC01208388E890E0D4
:100330002DE730E0FC01318320838FE690E022E05E
:10034000FC01208384E890E0FC01118210828091FE
:100350000E0190910F01A0911001B09111018093B5
:10036000280190932901A0932A01B0932B018FE5D6
:1003700090E0FC0120818FE590E02068FC01208363
:100380000000DF91CF910895CF93DF93CDB7DEB713
:1003900081E890E0FC0110820000DF91CF91089588
:1003A000CF93DF93CDB7DEB781E0809326010000C5
:1003B000DF91CF9108951F920F920FB60F921124E3
:1003C0000BB60F922F933F934F935F936F937F934F
:1003D0008F939F93AF93BF93EF93FF93CF93DF934D
:1003E000CDB7DEB78091280190912901A0912A0113
:1003F000B0912B010197A109B10980932801909335
:100400002901A0932A01B0932B018091280190919A
:100410002901A0912A01B0912B01892B8A2B8B2BCA
:1004200091F40E94D00180910E0190910F01A09152
:100430001001B09111018093280190932901A0939C
:100440002A01B0932B010000DF91CF91FF91EF9132
:10045000BF91AF919F918F917F916F915F914F91DC
:100460003F912F910F900BBE0F900FBE0F901F90DA
:100470001895CF93DF9300D000D0CDB7DEB7698356
:100480007A838B839C8389819A81AB81BC818093A1
:100490000E0190930F01A0931001B0931101809170
:1004A0000E0190910F01A0911001B0911101809364
:1004B000280190932901A0932A01B0932B010000F9
:1004C0000F900F900F900F90DF91CF910895CF93E1
:1004D000DF93CDB7DEB780912C0190912D01CC0137
:1004E000A0E0B0E087309105A105B10508F012C188
:1004F0008E569B4FFC010C94870481E090E0909312
:100500002D0180932C0185E290E0FC01108209C14D
:1005100080E290E0FC018081882F90E080959095AA
:1005200083709927039739F486E090E090932D012A
:1005300080932C01F6C080E290E0FC018081882F3E
:1005400090E08095909583709927019739F482E027
:1005500090E090932D0180932C01E3C080E290E025
:10056000FC018081882F90E0809590958370992779
:10057000029739F484E090E090932D0180932C0150
:10058000D0C081E090E090932D0180932C01C9C0F0
:1005900080E290E0FC018081882F90E0809590952A
:1005A00083709927019731F4809127018F5F8093A1
:1005B00027013EC080E290E0FC018081882F90E01E
:1005C0008095909583709927029749F484E090E094
:1005D00090932D0180932C011092270129C080E275
:1005E00090E0FC018081882F90E080959095837049
:1005F0009927039749F486E090E090932D0180932A
:100600002C011092270114C080E290E0FC0180814F
:10061000882F90E08095909583709927892B41F4DD
:1006200081E090E090932D0180932C01109227019E
:10063000809127018A3009F071C082E090E09093A8
:100640002D0180932C011092270168C080E290E078
:10065000FC018081882F90E0809590958370992788
:10066000029731F4809127018F5F809327013EC06C
:1006700080E290E0FC018081882F90E08095909549
:1006800083709927019749F482E090E090932D01BF
:1006900080932C011092270129C080E290E0FC0198
:1006A0008081882F90E0809590958370992703979B
:1006B00049F486E090E090932D0180932C011092F4
:1006C000270114C080E290E0FC018081882F90E037
:1006D0008095909583709927892B41F481E090E073
:1006E00090932D0180932C01109227018091270176
:1006F0008A30B1F484E090E090932D0180932C0136
:10070000109227010DC081E090E090932D0180931D
:100710002C0107C0000005C0000003C0000001C09C
:10072000000080912C0190912D01CC01A0E0B0E05F
:1007300087309105A105B105B0F587569B4FFC01A7
:100740000C94870485E290E0FC018081893048F4B4
:1007500085E290E0FC01208185E290E02F5FFC01C2
:10076000208383E090E090932D0180932C011EC0A4
:1007700085E290E0FC018081882349F085E290E0E9
:10078000FC01208185E290E02150FC01208385E07E
:1007900090E090932D0180932C0108C085E290E0B9
:1007A000FC01108203C0000001C000000000DF91C6
:1007B000CF910895CF93DF93CDB7DEB781E290E07C
:1007C000FC01108282E290E02FEFFC01208384E2A2
:1007D00090E02FEFFC01208385E290E0FC01108285
:1007E00087E290E02FEFFC01208388E290E0FC019B
:1007F00010828AE290E02FEFFC0120838BE290E0F0
:10080000FC01108264E670E080E090E00E94390212
:100810000E948D010E9472000E94670285E290E0B2
:10082000FC018081882331F462E171E081E00E9463
:10083000EE0065C085E290E0FC018081813031F4FA
:1008400064E171E081E00E94EE0059C085E290E031
:10085000FC018081823031F466E171E081E00E9428
:10086000EE004DC085E290E0FC018081833031F4E0
:1008700068E171E081E00E94EE0041C085E290E015
:10088000FC018081843031F46AE171E081E00E94F2
:10089000EE0035C085E290E0FC018081853031F4C6
:1008A0006CE171E081E00E94EE0029C085E290E0F9
:1008B000FC018081863031F46EE171E081E00E94BC
:1008C000EE001DC085E290E0FC018081873031F4AC
:1008D00060E271E081E00E94EE0011C085E290E0EC
:1008E000FC018081883031F462E271E081E00E9495
:1008F000EE0005C064E271E081E00E94EE000000BD
:10090000809126018823E1F31092260185CFEE0F16
:10091000FF1F0024001C0BBE0790F691E02D0994E8
:10092000F894FFCF7D0288028C03C8028C03260353
:100930008303D503D503A203D503B803D503CE03A0
:10094000000000020000000064010000000001003F
:100950000000300031003200330034003500360032
:06096000370038003900E9
:00000001FF
